:020000040800F2
:1000000010090020A90100085D2D000877280008CC
:10001000AD2C000841110008253400080000000044
:10002000000000000000000000000000612D00083A
:100030006F110008000000005F2D00084D2E000821
:10004000C3010008C3010008C3010008C301000880
:10005000C3010008C3010008C3010008C301000870
:10006000C3010008C3010008C3010008C301000860
:10007000C3010008C3010008C3010008C301000850
:10008000C3010008C3010008C3010008C301000840
:10009000C3010008C3010008C3010008C301000830
:1000A000C3010008C3010008C3010008C301000820
:1000B000B12E0008BD2E0008C3010008C3010008CE
:1000C000C3010008C3010008C3010008C301000800
:1000D000C3010008C3010008C3010008C3010008F0
:1000E000C3010008C3010008C301000800F002F8C2
:1000F00000F04BF80AA090E8000C82448344AAF177
:100100000107DA4501D100F040F8AFF2090EBAE874
:100110000F0013F0010F18BFFB1A43F0010318473B
:10012000C0390000E0390000103A24BF78C878C117
:10013000FAD8520724BF30C830C144BF04680C60ED
:10014000704700000023002400250026103A28BF35
:1001500078C1FBD8520728BF30C148BF0B60704739
:100160001FB59DE8030000F079FD00F00FFF0400CB
:100170000020002103F08CFC401C606000F05EF960
:100180001FBD10B500F0C3F910BD00F026FA1146EE
:10019000FFF7E6FF03F072F900F026FD03B4FFF766
:1001A000F0FF03BC00F0ECFE094880470948004717
:1001B000FEE7FEE7FEE7FEE7FEE7FEE7FEE7FEE717
:1001C000FEE7FEE704480549054A064B7047000074
:1001D000AF2E0008ED0000081003002010090020D9
:1001E00010050020100500200FB4044910B503AA23
:1001F000029800F0AFF810BC5DF814FB0802002074
:100200000FB400B589B00BA86A46009003480A995C
:1002100000F0B2F809B05DF814FB0000B401002052
:100220002DE9FF5F4FF00008994614464646916954
:10023000D2E901A7DDF838B001988847054659EAA8
:100240000B0005D009E0A1690198761C8847054696
:10025000216A284688470028F5D1681C03D05FEA48
:10026000CA7005D015E04FF0FF3004B0BDE8F09F34
:100270002068011D2160D0F800800AE05FEACA70A2
:1002800001D108F8015BA169761C01987F1E88479F
:100290000546002F1ADD681C18D0B9F1000F0DD0EB
:1002A000E81705EBD060421120F01F0059F822102A
:1002B0002A1A012090400142E0D107E0BBF1000F73
:1002C000DCD12846216A88470028D7D0E169019807
:1002D0008847BBF1000F07D1002E05DD5FEACA7029
:1002E00002D1002188F80010A068B84203DDBBF1FC
:1002F000000F03D017B16FF00100B6E73046B4E746
:100300004FF0000200B5134694469646203922BFAE
:10031000A0E80C50A0E80C50B1F12001BFF4F7AFF9
:10032000090728BFA0E80C5048BF0CC05DF804EBDB
:10033000890028BF40F8042B08BF704748BF20F849
:10034000022B11F0804F18BF00F8012B7047704747
:1003500070477047074B70B50D467B4400F01DF8A1
:100360000446284600F066F810B14FF0FF3070BD2B
:10037000204670BD07310000034B7B449361034B63
:100380007B44D36100F022B8CB3000006B0000004A
:1003900001694A1C02610878704700B58FB0CDE949
:1003A00001310021059105497944CDE90310114639
:1003B000684600F067F90FB000BD0000E5FFFFFFE1
:1003C000026811441378016018467047D1600549EE
:1003D0007944516104497944116200211161114647
:1003E00000F064B9EDFFFFFF99020000704710B5FF
:1003F0004FF0FF34C1688A020FD5036B42689A42FE
:100400000BD1014690F82520104600F02DFB401C32
:1004100001D1204610BD002010BD11F0C00FF8D151
:10042000026941689142F4D90268491E521CC0E930
:100430000021F0E7007B00F08000704710B54248D3
:100440005421FFF75DFF41485421FFF759FF404811
:100450005421FFF755FF3F493B483C4A3F4B08605A
:100460003D490A603A491960531C0365481C1065F0
:10047000012008653B48344A39A1784400F018FB54
:1004800020B9384878440A3800F0B7FB37482F4A7B
:1004900035A1784400F00CFB20B9344878440A3880
:1004A00000F0ABFB32482A4A2FA1784400F000FB51
:1004B00020B92F4878440A3800F09FFB4023224897
:1004C000DC000021224600F0ABFA20B12548784438
:1004D000543800F092FB1D4822464023002100F0D2
:1004E0009FFA20B121487844543800F086FB184820
:1004F00022461023002100F093FA002806D01C4861
:100500007844BDE81040563800F077BB10BD104865
:1005100070B5006D20F001040B4800F03FFB0B4864
:1005200000F03CFB0A4800F039FB09E0206D20F0A8
:100530000105204600F032FB204600F073F82C46FF
:10054000002CF3D170BD0000B4010020080200208F
:100550005C02002044000020480000204C000020E5
:10056000720000005636000077000000423600009E
:100570002E3600000EB5CDE9000100F0E1FC02903E
:1005800069460120ABBE0EBD08B569460090022049
:10059000ABBE08BD1FB58DE8070069460520ABBEA0
:1005A00004B010BD1FB58DE80F0069460620ABBE34
:1005B000F6E708B5694600900920ABBE08BD1CB53A
:1005C000CDE9000169460A20ABBE1CBD704708B5E5
:1005D000694600900C20ABBE08BD754600F014FBC8
:1005E000AE4605006946534620F00700854618B020
:1005F00020B5FFF7E7FDBDE820404FF000064FF0C3
:1006000000074FF000084FF0000B21F00701AC4647
:10061000ACE8C009ACE8C009ACE8C009ACE8C00966
:100620008D46704770B50446051F00F0FBFA006860
:10063000002C14BF446870BD002C18BFAC423CBFF6
:1006400020466468F8D301680A18AA4218BF4560BA
:1006500003D12A6805461144016028684119A14266
:100660001CBF6C6070BD61686960216808442860C7
:1006700070BD10B5044600F0CDFA0068005D00F0D2
:10068000010010BD2DE9F04106460024D6E90170B5
:10069000F5688046304603E04146B847641C304662
:1006A000A8470028F8D12046BDE8F0812DE9F34F96
:1006B0004FF0000A0C4656468DB001200C9001F117
:1006C0000C000B9062690B9801219047051E2DD0FC
:1006D000252D2CD0216A8847C0B162690B98012171
:1006E0009047216A88470028F7D16269411E0B981C
:1006F000904700E0761CA1690D988847216A8847D9
:100700000028F7D1E1690D988847DBE7A1690D98CA
:100710008847A842074601D1761CD3E7E1690D98C6
:1007200088477F1C02D1BAF1000F6FD06BE162697C
:100730000B9800273D46394690472A2804D1626924
:100740000B98012190470125DFF8D08262690B9850
:1007500001219047A0F130010A290AD24745E5DC82
:1007600007EB870100EB4107303FDFD445F0100570
:10077000ECE7E90601D46FF000476C280AD04C285A
:1007800014D0682815D06A280DD074281CD07A2877
:100790001AD01DE062690B98012190476C2802D0A5
:1007A00045F0040514E045F002050DE045F0200594
:1007B0000AE062690B9801219047682802D045F051
:1007C000080505E045F4006562690B980121904732
:1007D000C4E9015765283DD019DC58287AD00CDCD3
:1007E000452837D004DC252826D041289ED131E089
:1007F00046282FD0472899D12CE05B2877D0612854
:1008000028D063287CD0642823D15AE0F6E06F28F2
:1008100048D008DC66281DD067281BD0692821D065
:100820006E2816D127E0702845D0732868D0752827
:1008300047D078280DD14DE0A1690D98884725282B
:1008400005463FF469AFE1690D9888476D1C3FF498
:100850006AAFD8E00D9923466A466FF00100AFF306
:100860000080C5E045F0400023464FF00002606084
:10087000A80736D43EE0E8077FF447AF2068011DA3
:1008800021600068290501D506701BE7290701D5FD
:10089000068017E7A90703D5F117C0E9006111E742
:1008A00006600FE745F0400023464FF00802606005
:1008B000A80716D41EE040F60E0125EA010060608C
:1008C00016E045F0400023464FF00A026060A8079A
:1008D00007D40FE045F040006060A80708D5234624
:1008E00010220D996FF00100AFF3008080E007E067
:1008F000102223460D996FF00100AFF3008077E0DE
:100900004FF0000963284F46C8464B46CB4602D0FD
:100910005B2806D038E0E80601D40120A06001275A
:1009200032E06269D4F80CB00B98012190475E2840
:1009300007D14FF0010949466269D4F80CB00B9811
:100940009047216939B900210A4603AB43F82120B9
:10095000491C0829FADBD8B3216949B308F1010819
:1009600062690B98012190475D28F4D1B9F1000F1D
:1009700009D0002003A951F82020D24341F82020BB
:10098000401C0828F7DB03AB2069002820794FEAD8
:1009900040701ED05B462246CDF80080CDE901971D
:1009A0000D9900286FF0010020DAAFF300801FE0FE
:1009B000C11703AA00EBD1614B1121F01F0102EB1B
:1009C0008302411A13680120884003431360C7E77C
:1009D00019E00D99224600286FF00100009702DA15
:1009E000AFF3008004E0FFF71BFC01E0AFF30080F1
:1009F00000280ADA401C06D10C9820B14FF0FF30D5
:100A00000FB0BDE8F08F5046FAE7E90701D10AF1CF
:100A1000010A064400200C9054E60000CCCCCC0C1B
:100A200070B5C468A50713D0650211D4B2F5807FF4
:100A300009D0B2F5007F06D0B2F5806F08D101234E
:100A400000F1240106E05D1E6FF07F46B54201D340
:100A5000012070BD0161C361416024F470611143E4
:100A6000C160002070BD0000CA68431C0FD00D4B50
:100A70001A420CD1D3070AD081F825004B680B63CA
:100A800000238B6012F0C06F0B6003D004E04FF0C6
:100A9000FF30704742F00072034B1A40034B1A4379
:100AA000CA60704780200800BFFFDFFF00104800C9
:100AB0002DE9F0410C4607461646104600F06EF848
:100AC0002078611C61280AD0722802D077283CD196
:100AD00002E00125002405E00225042402E00824A8
:100AE00048F2020511F8010B2B2806D0622809D024
:100AF00011F8010C74280AD00BE045F0030544F00E
:100B00000204EFE745F0040544F00104EAE744F08D
:100B1000100438462146FFF72DFD411C15D0002159
:100B2000316171604FF40071F560F161706120070F
:100B300004D530460222002100F0EEF8306D40F07E
:100B4000010030653046BDE8F0810020FBE72DE96B
:100B5000F0410D460646104C206DC10704D04108F7
:100B600004D020F00104F7E722460EE0542000F004
:100B7000A4F807000ED0206D47F00101084354216E
:100B800020653846FFF7BCFB3A4629463046BDE8AB
:100B9000F0418DE70020D6E7B40100202DE9F047B1
:100BA00004464FF000094FF0FF37C568D4E90486CA
:100BB000A80707D0204600F05FF93046FFF7E4FCB5
:100BC000002802DA3846BDE8F087280502D54046FD
:100BD000FFF728FD4C212046FFF792FB206D20F007
:100BE000010020654846EEE710B50446AFF30080EB
:100BF0002046BDE81040FFF7D1BA10B500F086F9E5
:100C0000BDE8104000F07CB900487047B0020020F9
:100C10007047000010B500F0B9F9001D10BD00BF0D
:100C2000712E000000487047B802002070477047DE
:100C30007047704738B504460A4600206946AFF34E
:100C40000080002808BF38BD02460099204600F009
:100C5000A8F9012038BD012000F0F7B9F8B5AFF3CD
:100C60000080054600200C46102000BF0646A8194B
:100C7000A0420DD9324669460020AFF3008007003C
:100C800008BF00F0E2F90098A04218BF0546C41959
:100C9000FFF7C8FF05600746F01D20F00700461962
:100CA000284600F077F9B44208BFF8BDA21B3146D0
:100CB0003868BDE8F84000F074B970B50646FFF733
:100CC000B1FF056806F10B0020F00704B4429CBF99
:100CD000002070BD2B466A68BAB11068A04210D3DC
:100CE00004F1080188423CBF5068586007D351683E
:100CF000101941601168091B016058601460101DD3
:100D000070BD13465268002AE7D121462846FFF7F6
:100D100091FF0028DED170BD2DE9F0410446164652
:100D20000D464769007B80072ED03846FFF741FC0F
:100D300050BB3EB3012E02D0022E25D104E0204646
:100D400000F049F905441DE03846FFF740FCE16832
:100D5000002841F01001E16005DA204600F058F863
:100D60000120BDE8F081C9030BD56268E16A9142B8
:100D700000D81146A26911442269891A814200DD16
:100D800008460544002D01DA0220EAE7E16A6068BE
:100D9000E268814206D29103E06203D522F4003179
:100DA00041F01002A6690027AE4213DCE16A8142DD
:100DB00001D90B4600E0034603EB060C2369ACEBBC
:100DC000030CAC4506DD814201D98C4600E0844627
:100DD0009C4505D1A760276042F02000A5620DE088
:100DE000AD1BE669AE1B8142A66000D90846C01A59
:100DF000281A20605819606022F02000034908403A
:100E0000E060002084F84870ABE70000BFCFD7FF58
:100E1000C16821F4001141F08001C16000218160AE
:100E2000016070472DE9F047814614460E464FF0A9
:100E3000FF383248D5685769054209D03846A1695C
:100E4000FFF7BDFB002811DB2C48C0430540E560DF
:100E50002B46324649463846FFF79CFBA16920F0F5
:100E60000042B21A11440028A16103D02046FFF7C6
:100E7000CFFF4046BDE8F08770B504460569C06AFB
:100E80006168884200D80846E16821F42011E160D9
:100E9000C90312D5A84208D02246411B2846FFF7B5
:100EA000C1FF10B14FF0FF3070BD0020E562C4E912
:100EB0000150E06820F48030E060002070BD10B583
:100EC0000446C06820F02000E060A16AA069884262
:100ED0000DD02046FFF7D0FFE06820F4405040F0EE
:100EE0001000E060A06AA0612069E062606044F2E6
:100EF0004001E0688843E06010BD0000100002007F
:100F0000002801D000F03CB87047000010B5014641
:100F100002A000F081F8012010BD000053494752A3
:100F2000545245443A2052656469726563743A20AC
:100F300063616E2774206F70656E3A2000000000B8
:100F400010B5431C02E010F8011B71B18107FAD102
:100F50004FF0013202C88C1A8C4314EAC211F9D046
:100F6000C01A0A0603D0C01E10BDC01A10BD0A0464
:100F700001D0801E10BD0902FCD0401E10BD000033
:100F800001491820ABBEFEE726000200004870476A
:100F9000D002002000210160C0E90110704710203C
:100FA0007047034640688C46002818BF88423CBF03
:100FB00003464068F8D318681844884207D00CF1FB
:100FC000030020F00700001D411A521A0146081DB7
:100FD0000A60FFF727BB10B50146C268900703D02F
:100FE000900607D5886A0AE000F03EF8012101600A
:100FF000881E10BD8B69486818440B69C01A91F8A7
:1010000048301BB191F84910401A10BD1103FCD5AE
:101010000028FADD401E10BD70B505460C460A20BA
:1010200000E06D1C00F018F835B128780028F8D1E0
:1010300002E0641C00F010F814B120780028F8D108
:10104000BDE870400A2000F007B810B500F010F8B5
:10105000BDE81040FFF754BF08B569468DF80000A1
:101060000320ABBE08BD000000487047B00200205E
:1010700010B5012805D0002103A0FFF7CDFF012006
:1010800010BD09A1F8E7000053494752544D454DA2
:101090003A204F7574206F662068656170206D6519
:1010A0006D6F7279000000003A2048656170206D14
:1010B000656D6F727920636F72727570746564000C
:1010C0004FF0013C50F8042B51F8043B9A4221D1D7
:1010D000A2EB0C03934313EACC1317D150F8042B63
:1010E00051F8043B9A4215D1A2EB0C03934313EA47
:1010F000CC130BD150F8042B51F8043B9A4209D180
:10110000A2EB0C03934313EACC13DBD04FF00000A7
:10111000704700BFD01A01BAB1FA81F101F018018D
:1011200022FA01F0CB40C1F12001DBB2C0B2C01AFB
:101130002CFA01F3D11A914311EAC311E6D1704799
:10114000FEE70A460146531AA0EB000200D55B42B7
:10115000002A00DA52421344032293FBF2F3032BDA
:1011600004D20B461844084490FBF2F070477047D5
:1011700010B50446482000F095FC204600F070F8B9
:10118000BDE81040014800F08DBC0000401901008E
:1011900072B6FEE770B50E4D4FF400642C6001206E
:1011A00000F05EF8281F04600A2000F059F82C6057
:1011B00008490878020609D58A88800602EB902043
:1011C0003A2290FBF2F000220A7070BD002070BD40
:1011D000140801400000002070B50E4D4FF400646B
:1011E0002C60012000F03CF8281F04600A2000F069
:1011F00037F82C6008494878020609D5CA88800665
:1012000002EB90203A2290FBF2F000224A7070BD6F
:10121000002070BD140801400000002070B50E4D84
:101220004FF400642C60012000F01AF8281F0460BD
:101230000A2000F015F82C6008498878020609D5C4
:101240000A89800602EB90203A2290FBF2F00022FD
:101250008A7070BD002070BD14080140000000209D
:1012600070B5044600F004F90546601C02D004483D
:101270000078044400F0FCF8401BA042FAD370BD93
:10128000340000202DE9F84FDFF8B891002409F16F
:10129000040A0AF1040B23460F270BF1040EC9E0E0
:1012A0000125A5402A40AA427DD1674ED1F804C04D
:1012B000ACEB0608B44532D014DCBCF1030F3AD0D5
:1012C00009DCBCF1000F2AD0BCF1010F1CD0BCF12D
:1012D000020F31D11DE0BCF1110F17D0BCF1120F7C
:1012E0002AD119E0B8F5881F19D006DCB8F5803F7F
:1012F00015D0B8F5801F1FD111E0B8F5001F0ED032
:10130000B8F5041F18D10AE0CB6815E0CB681B1DA7
:1013100012E0CB6808330FE0CB680C330CE08B682D
:101320002BB1012B4FF0080303D0456104E00423E7
:1013300002E0056100E00023FF2A01D8064601E033
:1013400000F104064FEA840501D9A5F12005D6F87D
:10135000008007FA05FC28EA0C0803FA05F548EABC
:101360000508C6F800804D68ED0062D5374DAE69BE
:1013700046F00106AE61AD6924F0030605F00105F3
:101380000095334D06EB050CDCF80850A607360F28
:1013900007FA06F825EA0805DFF8B880404503D1CA
:1013A0004FF0000817E044E0DFF8AC80404502D180
:1013B0004FF001080FE0DFF8A480404502D14FF064
:1013C000020808E0DFF89880404502D14FF003089A
:1013D00001E04FF0040808FA06F848EA0508CCF8DE
:1013E00008804D68D9F80060ED034D4601D51643DD
:1013F00000E096432E604D68DAF80060AD03554674
:1014000001D5164300E096432E604D68DBF800607E
:10141000ED025D4601D5164300E096432E604D680F
:10142000DEF80060AD02754601D5164300E0964334
:101430002E60641C0D682A46E5407FF431AFBDE89C
:10144000F88F00000004014000001110001002405D
:101450000000014000080140000C01400010014064
:10146000001401400AB1016170470904FBE7000064
:1014700001488068704700003400002002488168FD
:10148000027811448160704734000020074810B58D
:10149000016841F010010160032000F075F80F2091
:1014A00000F006F800F024F8002010BD00200240F3
:1014B00070B50D4D04464FF47A712878B1FBF0F009
:1014C0000A490968B1FBF0F000F0ECFA48B9102CB9
:1014D00007D200222146501E00F036F800206C6032
:1014E00070BD012070BD00003400002040000020CD
:1014F0000C4808B5816941F001018161816901F001
:1015000001010091C16941F08051C161C06900F0E1
:10151000805000900448416821F0E06141F0007182
:10152000416008BD0010024000000140002809DBB6
:1015300000F01F02012191404009800000F1E020ED
:10154000C0F8001170470000F0B40E4B1B680C4649
:10155000C3F30223C3F10705042D00D90425191D87
:10156000072901D2002300E0DB1E012606FA05F15F
:10157000491E214099409E40761E16403143F0BCE2
:1015800001F051BF0CED00E0064900F007020868C9
:101590004FF6FF03184040EA0220034A1043086058
:1015A000704700000CED00E00000FA052DE9F0475F
:1015B0000F46050061D0434E306800F00700B84286
:1015C00009D2306820F0070038433060306800F0FE
:1015D0000700B84251D128683B4C810712D540071B
:1015E00003D5606840F4E06060602878000703D5A8
:1015F000606840F4605060606068A96820F0F000A6
:10160000084360602878C00728D06868012810D097
:101610002168022810D0890700292EDA616821F09C
:10162000030101436160FFF723FF804641F28839DF
:101630000DE021688903EFE78901EDE7FFF718FF67
:10164000A0EB0801494502D90320BDE8F087606896
:10165000696800F00C00B0EB810FEFD1306800F04A
:101660000700B8420BD9306820F0070038433060DB
:10167000306800F00700B84201D00120E5E7287883
:10168000400705D56068E96820F4E06008436060C1
:101690002878000706D56068296920F4605040EA80
:1016A000C100606000F038F86168084AC1F30311B6
:1016B000515CC8400649086006480068FFF7F8FE1C
:1016C0000020C2E70020024000100240BC3A00089F
:1016D000400000203800002004480549006849689F
:1016E000044AC1F30221515CC84070474000002009
:1016F00000100240CC3A00080448054900684968D7
:10170000044AC1F3C221515CC84070474000002028
:1017100000100240CC3A000812A185B00FC98DE834
:101720000F0014A0144A006804905168134801F097
:101730000C03042B10D0082B0ED1C1F38343C90333
:101740001DF803000AD5516804AAC1F34041515C59
:101750000A4A5043B0FBF1F005B0704708494843CE
:10176000FAE7000002030405060708090A0B0C0D3E
:101770000E0F1010010200000010024000127A004B
:1017800000093D002DE9F84F040070D02078C04DCD
:10179000C00749D06868C0F38100012807D0686895
:1017A000C0F38100022809D16868C00306D5286803
:1017B000800339D560680028E7D035E06068B0F56F
:1017C000803F0BD010B1B0F5A02F11D0286820F4C5
:1017D00080302860286820F4802002E0286840F4E7
:1017E00080302860606890B1FFF742FE06460AE04C
:1017F000286840F480202860F0E700BFFFF738FE3B
:10180000801B642873D828688003F7D50CE0FFF7A5
:101810002FFE064605E000BFFFF72AFE801B642866
:10182000F0D828688003F7D420789A4E80074FF0CC
:1018300001094FF0000839D5686810F00C0F07D087
:101840006868C0F38100022809D16868C00306D423
:101850002868800714D52069012808D110E0206984
:10186000B0B1C6F80090FFF703FE074605E00AE1B5
:10187000FFF7FEFDC01B0228C4D828688007F7D5F3
:101880002868616920F0F80040EAC10028600DE096
:10189000C6F80080FFF7ECFD074604E0FFF7E8FD1F
:1018A000C01B022823D828688007F7D420780007B7
:1018B0002CD57948A169D9B1C0F80090FFF7D8FDBF
:1018C000074604E0FFF7D4FDC01B02280FD8686A62
:1018D0008007F7D571484FF4FA510068B0FBF1F07A
:1018E000009000BF0098411E0091FAD20EE080E007
:1018F000C0F80080FFF7BCFD074604E0FFF7B8FD25
:10190000C01B022875D8686A8007F7D42078400782
:1019100060D5E8690027C00008D4E86940F080502D
:10192000E861E869012700F0805000905C48016898
:10193000C90513D40168834641F480710160FFF743
:1019400097FD824606E000BFFFF792FDA0EB0A007C
:1019500064284ED8DBF80000C005F5D5E068012802
:101960000AD008B1052813D0286A20F001002862A7
:10197000286A20F0040002E0286A40F00100286292
:10198000E06841F2883B98B1FFF772FD82460BE0B8
:10199000286A40F004002862EEE700BFFFF768FD08
:1019A000A0EB0A0159455AD8286A8007F6D50CE001
:1019B000FFF75EFD824605E0FFF75AFDA0EB0A0146
:1019C00059454CD8286A8007F6D41FB1E86920F041
:1019D0008050E861E06988B36968C1F38101022938
:1019E00044D00228C6F8608004D0FFF741FD0446C9
:1019F00038E034E0FFF73CFD074604E0FFF738FD30
:101A0000C01B02282BD828688001F7D4206AB0F5C3
:101A1000803F05D16868A16820F400300843686001
:101A2000D4E908010843696821F474110843686027
:101A3000C6F86090FFF71CFD044606E025E000BFF5
:101A4000FFF716FD001B022809D828688001F7D58A
:101A50001BE000BFFFF70CFD001B022802D903208A
:101A6000BDE8F88F28688001F4D40EE00128F7D093
:101A70006868226A00F48031914204D1616A00F4FE
:101A80007010884201D00120EAE70020E8E700005A
:101A90000010024000004242800442424000002008
:101AA0000070004010B5401EB0F1807F01D30120CE
:101AB00010BD4FF0E02460610F21601701F0B3FC0E
:101AC0000020A06107202061002010BD70477047F2
:101AD00010B590F83C20012A22D0012280F83C2049
:101AE000CA688C6822F4407222434C6822F48062F7
:101AF00022430C6822F4006222430C6922F48052D3
:101B000022434C6922F400522243C969002322F483
:101B100080420A4301684A6480F83C30002010BDCE
:101B2000022010BD70B590F83C20012A26D0012477
:101B300080F83C40022280F83D2003685A689D6886
:101B400022F070060A6832435A600D4B02689A42CE
:101B500008D0B2F1804F05D00A4B9A4202D00A4B0E
:101B60009A4204D1496825F080031943916080F8B6
:101B70003D40002180F83C10084670BD022070BD39
:101B8000002C0140000400400008004010B5040093
:101B900003D094F83D0010B107E0012010BD0020F3
:101BA00084F83C00204600F01FF8022084F83D0035
:101BB000211D206801F088F9012084F8460084F88E
:101BC0003E0084F83F0084F8400084F8410084F827
:101BD000420084F8430084F8440084F8450084F807
:101BE0003D00002010BD000010B586B00024009418
:101BF000019402940394344A01683448914207D115
:101C0000816941F400618161806900F4006058E0FD
:101C1000B1F1804F14D02E4A914248D1C16941F0B0
:101C20000201C161C069002200F002000490114667
:101C30001D20FFF789FC1D20FFF778FC06B010BDC2
:101C4000C16941F00101C161C16901F00101049163
:101C5000816941F004018161816901F0040104910D
:101C6000816941F0080181618069694600F00800DE
:101C70000490032000901748FFF704FB4FF48060A6
:101C8000CDE90004694614480294FFF7FBFA1348B3
:101C9000416821F4407141F0E06141F4007141601C
:101CA000002211461C20FFF74FFC1C20C4E70C4A01
:101CB0009142C3D1C16941F00401C161C06900F022
:101CC00004000490BAE70000002C0140001002401C
:101CD0000004004000080140000C014000000140E9
:101CE0000008004070B5044690F83C00012817D069
:101CF000012584F83C50022084F83D002068826869
:101D000022F0770222F47F4282600868502830D0A7
:101D10000DDC20284DD005DC98B310283BD148E0DD
:101D2000022070BD302844D0402834D139E06028EA
:101D300028D0702806D0B0F5805F2CD0B0F5005FB9
:101D400029D10AE0CB68D1E90121206801F0FFF830
:101D50002068816841F0770109E0CB68D1E9012171
:101D6000206801F0F4F82068816841F480418160C6
:101D700011E0CA684968206801F09EF95021206886
:101D800007E016E0CA684968206801F0D3F96021CD
:101D9000206801F0E6F884F83D50002084F83C000B
:101DA00070BDCA684968206801F086F94021206842
:101DB000EFE7226801461046EBE700002DE9F04707
:101DC000564D574C4FF04007287841F21118010644
:101DD00040F244494FF0000632D4410610D540F09D
:101DE000800028700021204600F00CFCA8802068AC
:101DF000016A21F00A0101622068016A01621FE0A4
:101E0000AE802F702068016A11EA080F07D1016ABD
:101E100011EA090F03D1016821F001010160206876
:101E200046622068016A21F00A0101622068016AA5
:101E300041F0020101622068016841F00101016086
:101E40006878010632D4410610D540F080006870F1
:101E50000421334800F0D6FBE8802068016A21F0B5
:101E6000A00101622068016A01621FE0EE806F70CC
:101E70002068016A11EA080F07D1016A11EA090F07
:101E800003D1016821F001010160206846622068E9
:101E9000016A21F0A00101622068016A41F020017D
:101EA00001622068016841F001010160A878010623
:101EB00011D4410611D540F08000A87008211848BF
:101EC00000F0A0FB28812068016A21F40071016202
:101ED0002068016A0162BDE8F0872E81AF7020683A
:101EE000016A11EA080F07D1016A11EA090F03D14B
:101EF000016821F001010160206846622068016AE2
:101F000021F4007101622068016A41F400710162EC
:101F10002068016841F001010160DCE70000002059
:101F2000980000202DE9F041054690F83C000C4651
:101F3000012836D0012085F83C008AB3042A42D01B
:101F40002868082A51D0D4E90023E168066A26F4FB
:101F500080560662C669076A26F4407646EA03237D
:101F60004FF6FF7606EA013123F4704319434FF42C
:101F7000005627F4005306EA02321A43C161026296
:101F80002868C16921F44061C1612868C169A268FB
:101F900041EA0221C161002085F83C00BDE8F081E2
:101FA00001E00220FAE7D4E90012E368286801F0B2
:101FB00095F82868816921F00C01816128688169A0
:101FC000A26811430FE0D4E90012E368286801F029
:101FD000C3F82868816921F44061816128688169BA
:101FE000A26841EA02218161D5E7D4E90027267B76
:101FF000016A21F480710162C169036A21F0030161
:10200000394321F0F00731074FF4007647EA1161B8
:1020100023F4007306EA02221A43C16102622868AF
:10202000C16921F00C01C1612868C169A26811432E
:10203000B0E710B5040003D094F83D0010B107E0FC
:10204000012010BD002084F83C00204600F01EF85E
:10205000022084F83D00211D206800F035FF01209A
:1020600084F8460084F83E0084F83F0084F840007D
:1020700084F8410084F8420084F8430084F8440066
:1020800084F8450084F83D00002010BD7047000032
:1020900010B5044651B104290DD0082910D094F888
:1020A000410094F84520012811D10EE094F83E003B
:1020B00094F84220F7E794F83F0094F84320F2E7C1
:1020C00094F8400094F84420EDE7012A01D0012063
:1020D00010BD022051B1042911D0082918D084F86C
:1020E000410084F845000C291BD136E084F83E00FD
:1020F00084F842002068C26842F0020210E084F8CE
:102100003F0084F843002068C26842F0040207E000
:1021100084F8400084F844002068C26842F0080255
:10212000C2600122206800F005FF0E492068884245
:1021300008D0B0F1804F05D00B49884202D00B493E
:10214000884204D1816801F00701062903D00168A3
:1021500041F001010160002010BD2068C26842F01A
:102160001002DDE7002C01400004004000080040A0
:1021700070B50446006801694FF00005C94389073E
:1021800015D4C168C943890711D4E91E0161012032
:102190002077206880698007204602D0FFF70EFE76
:1021A00004E000F0F7F8204600F086F92577206873
:1021B0000169C943490717D4C168C943490713D402
:1021C0006FF004010161022020772068806910F41B
:1021D000407F204602D0FFF7F1FD04E000F0DAF87E
:1021E000204600F069F9257720680169C94309078D
:1021F00016D4C168C943090712D46FF00801016100
:10220000042020772068C0698007204602D0FFF7AD
:10221000D5FD04E000F0BEF8204600F04DF925772A
:1022200020680169C943C90617D4C168C943C906F2
:1022300013D46FF010010161082020772068C06975
:1022400010F4407F204602D0FFF7B8FD04E000F014
:10225000A1F8204600F030F9257720680169C943CC
:10226000C90708D1C168C943C90704D1891E0161E2
:10227000204600F071F920680169C943090609D4B4
:10228000C168C943090605D46FF080010161204689
:10229000FFF71CFC20680169C943490609D4C168DD
:1022A000C943490605D46FF040010161204600F0A2
:1022B000BEF920680169C94389060BD4C168C943C6
:1022C000890607D46FF0200101612046BDE8704007
:1022D000FFF7FDBB70BD000030B585B00021009157
:1022E0000191029103910068244B25490224254A5B
:1022F00098420ED1886940F004008861886903948F
:1023000000F0040004908815CDE9000469461046E9
:102310001DE01D4B1D4D98421DD1886940F0040001
:102320008861886900F004000490886940F0080022
:1023300088618869694600F008000490C020CDE9F2
:10234000000410460394FEF79DFF032010E0FEF703
:1023500099FF05B030BD0E4A9042FAD1886940F02D
:1023600008008861886900F0080004904FF47070DC
:10237000CDE90004694628460394E8E7002C0140B3
:10238000001002400008014000040040000C014021
:1023900000080040704770B5044690F83C000D46B8
:1023A00001280AD0012084F83C0042B1042A18D048
:1023B000082A2AD00C2A4DD139E0022070BD2068AD
:1023C00000F0D8FD2068816941F008018161206832
:1023D000816921F004018161206881692A691143C2
:1023E00011E0206800F0EEFD2068816941F4006191
:1023F00081612068816921F480618161206881693F
:102400002A6941EA0221816124E0206800F006FE89
:102410002068C16941F00801C1612068C16921F0EB
:102420000401C1612068C1692A69114311E0206873
:1024300000F020FE2068C16941F40061C16120689C
:10244000C16921F48061C1612068C1692A6941EADA
:102450000221C161002084F83C0070BD10B5040069
:1024600003D094F83D0010B107E0012010BD00201A
:1024700084F83C00204600F01EF8022084F83D005D
:10248000211D206800F020FD012084F8460084F81A
:102490003E0084F83F0084F8400084F8410084F84E
:1024A000420084F8430084F8440084F8450084F82E
:1024B0003D00002010BD70477047000010B5044675
:1024C000022249B104290ED0082913D094F8410002
:1024D000012816D0012010BD94F83E000128F9D142
:1024E00084F83E200FE094F83F000128F2D184F8F0
:1024F0003F2008E094F840000128EBD184F8402008
:1025000001E084F841200122206800F013FD0F490A
:102510002068884203D1426C42F400424264206841
:10252000884208D0B0F1804F05D00949884202D0D6
:102530000849884204D1816801F00701062903D0C7
:10254000016841F001010160002010BD002C014034
:10255000000400400008004030B5264C26494FF6E4
:10256000FF73A04209D10A78150606D4550604D592
:10257000D543AD0625D0521C0A70A04209D14A7835
:10258000150606D4550604D5D543AD061ED0521CFB
:102590004A70A04209D18A78140606D4540604D59C
:1025A000D443A40617D0521C8A70144A904220D1FA
:1025B000134A1088401C1080C868012810D088B1C8
:1025C00011E042F080020A708B80D6E742F0800270
:1025D0004A70CB80DDE742F080028A700B81E4E72D
:1025E0000869401C08618869012802D14869401CBB
:1025F000486130BD9800002000000020E00000206D
:10260000200000200246002041B1042909D00829F9
:102610000AD00C2901D11068006C70471068406B1B
:1026200070471068806B70471068C06B70477047C8
:1026300070B5040004D094F83D00002510B106E008
:10264000012070BD84F83C50204600F023F824207F
:1026500084F83D002068C16821F40051C160204623
:1026600000F096FD2068016921F490410161206825
:10267000416921F02A0141612068C16841F400519B
:10268000C1602564202084F83D0084F83E000020CD
:1026900070BD000030B585B0002400940194029410
:1026A000039400681449884223D11448C16941F455
:1026B0000031C161C16901F400310491816941F0C7
:1026C0000401816180690E4D00F004000490042033
:1026D0000090022001900320039069462846FEF7EF
:1026E000D1FD0820CDE90004694628460294FEF792
:1026F000C9FD05B030BD000000440040001002409C
:10270000000801402DE9F84F044690F83E009A4633
:1027100016460D46202853D1FDB1F6B194F83C0081
:1027200001284DD0012084F83C0000272764222096
:1027300084F83E002763FEF79BFEA6858146E6856A
:10274000A0684FF48058404501D1206940B12E4621
:102750005FF0000584F83C7027E00120BDE8F88FA9
:102760000026F7E74B46002220212046CDF800A0A6
:1027700000F06AFD08B10320F0E726B1A0684045EB
:102780001BD038B108E020684068C0F3080025F885
:10279000020B07E0206980B12068406800F07F00EC
:1027A00006F8010BE08D401EE085E08D0028D9D1B0
:1027B000202084F83E000020D0E720684068EFE742
:1027C0000220CBE72DE9F843044690F83D001F4670
:1027D00016460D4620284CD1C5B1BEB194F83C0038
:1027E000012846D0012084F83C004FF00008C4F8CE
:1027F0004080212084F83D00FEF73AFEA684814601
:10280000E684A068B0F5805F03D004E00120BDE855
:10281000F883206928B12E465FF0000584F83C80DB
:102820000EE00026FAE78021204600F00DFDA0B959
:10283000AEB116F8010B21684860E08C401EE084C0
:10284000E08C4B464FF0000200970028EBD14FF090
:102850004001204600F0F8FC30B10320D7E735F8FE
:10286000020BC0F30800E6E7202084F83D000020BA
:10287000CDE70220CBE7FEE72DE9F04186B000244A
:1028800026480094019402940394816941F0200148
:102890008161816901F020010491816941F00401A5
:1028A0008161816901F004010491816941F00801AD
:1028B000816180691A4F00F008004FF238050490DA
:1028C000002229463846FEF7CDFDDFF85880002269
:1028D0004FF408414046FEF7C5FD0095022601254C
:1028E0000396CDE9015469463846FEF7CBFCE80271
:1028F000CDE900050320CDE9024069464046FEF7D8
:10290000C1FCE803CDE90005CDE902466946404631
:10291000FEF7B8FC06B0BDE8F081000000100240F0
:10292000000C01400008014010B596B000240F943F
:1029300010941194129413941C2108A81494FDF778
:10294000DFFC20216846FDF7DBFC284826490160B2
:102950004721C0E9011440F2CF71C0E9031444617A
:102960008461FFF713F908B1FEF712FC4FF48050B1
:102970000F900FA91D48FFF7B5F908B1FEF708FC45
:102980001A48FFF76BFD08B1FEF702FC139413A978
:1029900016481494FFF7C6F808B1FEF7F9FB60205B
:1029A000CDE908040A940B940C940D94002208A914
:1029B0000E480E94FFF7EFFC08B1FEF7E9FB009418
:1029C0004FF40050CDE90440029401940394694609
:1029D00006480794FFF77CF808B1FEF7D9FB0348D7
:1029E000FFF77AFC16B010BD002C0140500000200B
:1029F00030B58BB00025324C0495059506950795AA
:102A0000089509950095019502954FF08040039532
:102A100020604720C4E901054FF6FF70C4E90305B3
:102A20002046A561FFF7B2F808B1FEF7B1FB4FF4FD
:102A30008050049004A92248FFF754F908B1FEF72A
:102A4000A7FB1F48FFF7F5FA08B1FEF7A1FB0895B1
:102A500008A91B480995FFF765F808B1FEF798FB30
:102A60000120CDE9005002950022694614480395E3
:102A7000FFF758FA08B1FEF78BFB042269461048AD
:102A8000FFF750FA08B1FEF783FB082269460C48AD
:102A9000FFF748FA08B1FEF77BFB00210848FFF773
:102AA000F7FA04210648FFF7F3FA08210448FFF774
:102AB000EFFA2068C16841F00101C1600BB030BD80
:102AC0009800002010B58EB0002407940894099453
:102AD0000A940B941C2168460C94FDF711FC3248B3
:102AE000304901604721C0E9011440F2E731C0E9F3
:102AF00003148461FFF74AF808B1FEF749FB4FF46D
:102B00008050079007A92848FFF7ECF808B1FEF7B6
:102B10003FFB2548FFF7A2FC08B1FEF739FB0B94F9
:102B20000BA921480C94FEF7FDFF08B1FEF730FB1E
:102B30006020CDE900040294002269461A480494FA
:102B4000FFF729FC08B1FEF723FB0422694616486B
:102B5000FFF721FC08B1FEF71BFB0822694612486B
:102B6000FFF719FC08B1FEF713FB0C2269460E486B
:102B7000FFF711FC08B1FEF70BFB00210A48FFF735
:102B80009DFC04210848FFF799FC08210648FFF73F
:102B900095FC0C210448FFF791FC0348FFF79CFBD0
:102BA0000EB010BD00040040E000002010B58EB053
:102BB00000240794089409940A940B941C216846F5
:102BC0000C94FDF79DFB2A48284901604721C0E984
:102BD000011440F2E731C0E903148461FEF7D6FF27
:102BE00008B1FEF7D5FA4FF48050079007A92048A6
:102BF000FFF778F808B1FEF7CBFA1D48FFF72EFC77
:102C000008B1FEF7C5FA0B940BA919480C94FEF70E
:102C100089FF08B1FEF7BCFA6020CDE900040294F8
:102C20000022694612480494FFF7B5FB08B1FEF78D
:102C3000AFFA042269460E48FFF7ADFB08B1FEF774
:102C4000A7FA082269460A48FFF7A5FB08B1FEF774
:102C50009FFA0C2269460648FFF79DFB08B1FEF774
:102C600097FA0348FFF738FB0EB010BD000800408C
:102C7000280100200C4810B50A4901604FF4E131E9
:102C80004160002181600C22C160C0E904128161B1
:102C9000C161FFF7CDFC002803D0BDE81040FEF76E
:102CA00077BA10BD0044004070010020FEE700002C
:102CB000094B4FF49672196848B1012809D00228CF
:102CC00004D14FF47A70C863196808647047CA6306
:102CD00070470A6470470000E0000020084A11684D
:102CE00048B1012809D0022804D14FF47A70486312
:102CF0001168886370474B6370478B6370470000AF
:102D0000E0000020094B4FF49672196848B1012881
:102D100009D0022804D14FF47A7048631968886397
:102D200070474A6370478A6370470000280100209B
:102D3000094B4FF49672196848B1012809D002284E
:102D400004D14FF47A70C863196808647047CA6385
:102D500070470A647047000028010020FEE77047B2
:102D6000704700002DE9F041002000F063F84FF4B7
:102D70007A773846FEF774FA0125FEF72DFA2C4CC7
:102D80006060FEF7DEF90646FEF748FAA060FEF73F
:102D9000D8F9032E00DC0225032825DD032E23DCD1
:102DA000022D02D0032D1FD040E00020FFF796FF38
:102DB0000020FFF7A7FF0020FFF7BAFF0020FFF772
:102DC00077FFFEF72BFAA060FEF7BBF903282DDC96
:102DD0000220FFF783FF0220FFF794FF0220FFF796
:102DE000A7FF0220FFF764FF0120FFF777FF012014
:102DF000FFF788FF0120FFF79BFF0120FFF758FF37
:102E0000FEF7EAF96060FEF79CF903280EDC022069
:102E1000FFF764FF0220FFF775FF0220FFF788FF2E
:102E20000220FFF745FF3846BDE8F0810020FBE7B0
:102E3000240000200449096820B1012801D196200E
:102E400048637047FA20FBE750000020FEF716BBEE
:102E500030B58FB028216846FDF752FA14210AA830
:102E6000FDF74EFA01210804CDE900100024029478
:102E700002250491CDE907504FF4E010099068460F
:102E8000FEF780FC08B172B6FEE70F20CDE90A0517
:102E90004FF48060CDE90C4002210AA80E94FEF7A1
:102EA00085FB002801D072B6FEE70FB030BD704739
:102EB0000148FFF75DB90000980000200148FFF7C6
:102EC00057B90000E0000020F0B50268164B174C1F
:102ED000174D4FF08047984205D0B84203D0A0422A
:102EE00001D0A84203D122F070064A6832439842CA
:102EF00005D0B84203D0A04201D0A84203D122F4A9
:102F00004074CA6822434C6922F080022243026066
:102F10008A68C2620A688262984201D109690163C3
:102F200001214161F0BD0000002C0140000400407F
:102F30000008004010B501F01F030121046A994008
:102F40008C430462016A9A401143016210BD10B5BE
:102F5000846842EA032224F47F440A4322438260C5
:102F600010BD826822F070020A4342F007018160BE
:102F70007047000030B5026A22F001020262026A64
:102F80004368846924F073050C682C4322F0020521
:102F90008A682A430A4DA8420BD122F00805CA6864
:102FA00023F440732A434D6922F004021D438B69C8
:102FB0002B434360846149684163026230BD000075
:102FC000002C014030B5026A22F010020262026A4F
:102FD000436884690D6824F4E64444EA05248D6856
:102FE00022F0200242EA05120B4DA8420ED1CD6814
:102FF00022F0800242EA05124D6923F4406343EA5D
:1030000085038D6922F0400243EA850343608461B1
:1030100049688163026230BD002C014030B5026A0C
:1030200022F480720262036A4268C46923F4007366
:1030300024F073050C682C438D6843EA05230C4D7E
:10304000A8420ED1CD6823F4006343EA05234D69FD
:1030500022F4405242EA05128D6923F4806342EA69
:1030600005124260C4614968C163036230BD00005B
:10307000002C014030B5026A22F480520262046AD8
:103080004268C3690D6823F4E64343EA05238D686B
:1030900024F4005444EA0534064DA84204D14D6995
:1030A00022F4804242EA85124260C36149680164A9
:1030B000046230BD002C014010B5036A046A24F09C
:1030C00001040462846924F0F00444EA021423F049
:1030D0000A020A438461026210BD000070B5046AEE
:1030E00024F0010404628469056A0F4EB04208D0DE
:1030F000B0F1804F05D00D4EB04202D00C4EB04220
:1031000003D124F00304144301E044F001041A073E
:1031100024F0F00444EA126225F00A0301F00A01E7
:1031200019438261016270BD002C0140000400401F
:103130000008004010B5036A23F01003036283699E
:10314000046A23F4704343EA023224F0A00343EA02
:1031500001118261016210BD30B5046A24F01004CF
:1031600004628469056A24F4407444EA022222F469
:1031700070444FF6FF7202EA03322243A02425F086
:10318000A00304EA011119438261016230BD00000D
:1031900070B5044600680169E26821F440511143AA
:1031A00001612169A0680843616908432168CA6810
:1031B00041F20C639A430243CA6020684169A269E4
:1031C00021F44071114341611E492068884202D1B7
:1031D000FEF792FA01E0FEF77FFA00EBC00101EB87
:1031E0000012606864218000B2FBF0F3B3FBF1F3DE
:1031F0006FF018067343B2FBF0F5B2FBF0F605EB87
:103200008305322303EB0515B5FBF1F5B6FBF1F6AB
:1032100005F0F00505EB0615B2FBF0F6B2FBF0F099
:10322000B0FBF1F06FF01802504306EB800003EBA7
:103230000010B0FBF1F0216800F00F002844886016
:1032400070BD0000003801402DE9F0419846174656
:103250000E460446069D1DE0681C1BD02DB1FEF7EE
:1032600007F9A0EB0800A84214D92068C16821F42E
:10327000D071C1602068416921F0010141612020C5
:1032800084F83D0084F83E00002084F83C000320D0
:10329000BDE8F0812068006836EA000004D0002014
:1032A000B842D9D00020F3E70120F9E710B5022099
:1032B00000F052F90A4C01200B49206009480968C6
:1032C000006888420ADB012000F046F9002000F087
:1032D00043F9002020604FF47A7010BD002010BD2B
:1032E0000C00002010000020140000202DE9F04701
:1032F0000120FFF79FFD4FF47A7A5046FDF7B0FFAB
:103300000127022000F074FADFF80491C9F8007078
:10331000FDF740FF3F4C2060FDF713FF00253E4EB8
:10332000192802DDE060376000E03560DFF8EC80EE
:10333000D8F800000F2869DB012000F059FA0020BE
:1033400000F056FAC9F8005035600020C8F8005067
:10335000FFF7C4FC0020FFF7D5FC0020FFF7E8FCD6
:103360000020FFF7A5FCFDF715FF2060FDF7E9FE43
:10337000E1680839884249D20220FFF7AFFC0220F9
:10338000FFF7C0FC0220FFF7D3FC0220FFF790FC00
:10339000032000F02DFA032000F0DEF8204937600A
:1033A000D8F800000968884230DB012000F020FADC
:1033B000002000F01DFA012000F0CEF8002000F0FF
:1033C000CBF800203560FFF789FC0020FFF79AFC5E
:1033D0000020FFF7ADFC0020FFF76AFCFDF7DAFEE6
:1033E0002060FDF7AEFEE168143988420ED202205B
:1033F000FFF774FC0220FFF785FC0220FFF798FC22
:103400000220FFF755FC5046BDE8F0870020FBE79F
:1034100018000020240000200C00002010000020D4
:1034200014000020FEE70907090E002804DB00F164
:10343000E02080F80014704700F00F0000F1E02059
:1034400080F8141D7047000008B54FF0FF330122CB
:1034500069460348FFF756F99DF8000008BD0000D3
:103460007001002013B54FF0FF3301226946024876
:10347000FFF7A8F900981CBD7001002008B5FEF701
:1034800005F8FFF7E5FCFFF7F7F9FFF74DFAFFF74F
:10349000AFFAFFF717FBFFF789FBFFF7EBFB17A06E
:1034A000FCF7A2FE69461DA0FCF7AAFEFDF772FE1E
:1034B0001B4D2860FDF745FE4FF47A74C5F80000F7
:1034C0009DF800000128FBD12868032811DC00BF0B
:1034D000FFF748FCA042FBD1FFF708FFA042FBD159
:1034E000FFF740FCA042FBD1FFF7E0FEA042FBD17A
:1034F000E6E70CA0FCF778FEE2E70000496E707585
:10350000742027312720746F205354415254207463
:103510006865206D616368696E6500002563000061
:103520001C000020506C65617365207075742074F8
:103530006865206D616368696E6520696E206672DA
:103540006F6E74206F662074686520737461697291
:10355000732021210000000070B5A44C38B101286F
:1035600015D04FF47A75022822D003287ED0206827
:1035700020F480502060206820F4005020602068F3
:1035800020F480402060206820F400400EE0206895
:1035900040F480502060206840F400502060206893
:1035A00040F480402060206840F40040206070BDFE
:1035B000206840F480502060206820F40050206093
:1035C000206820F480402060206820F400402060C3
:1035D0002846FDF7CDFD206840F48050206020682B
:1035E00040F400502060206820F480402060206873
:1035F00020F4004020602846FDF7BAFD206820F442
:1036000080502060206840F400502060206820F442
:1036100080402060206820F4004020602846FDF7AC
:10362000A7FD206820F480502060206840F40050FE
:103630002060206840F480402060206820F4004032
:1036400020602846FDF794FD206820F4805020601B
:10365000206820F400502060206840F48040206002
:10366000206820F400402060284600E024E0FDF7B8
:103670007FFD206820F480502060206820F40050F6
:103680002060206840F480402060206840F40040C2
:1036900020602846FDF76CFD206820F480502060F3
:1036A000206820F400502060206820F480402060D2
:1036B000206840F4004080E0206820F480502060C2
:1036C000206820F400502060206820F480402060B2
:1036D000206840F4004020602846FDF749FD20683E
:1036E00020F480502060206820F400502060206882
:1036F00040F480402060206840F40040206028466C
:10370000FDF736FD206820F480502060206820F40A
:1037100000502060206840F480402060206820F441
:10372000004020602846FDF723FD206820F48050EB
:103730002060206840F400502060206840F4804001
:103740002060206820F4004020602846FDF710FD2E
:10375000206820F480502060206840F400502060F1
:10376000206820F480402060206820F40040206021
:103770002846FDF7FDFC206840F48050206020685A
:1037800040F400502060206820F4804020602068D1
:1037900020F4004020602846FDF7EAFC206840F451
:1037A00080502060206820F400502060206820F4C1
:1037B00080402060206820F4004020602846FDF70B
:1037C000D7FC206840F480502060206820F400502E
:1037D0002060206820F480402060206840F4004091
:1037E00020602846BDE87040FDF7C2BC0C0C0140CB
:1037F00070B5A54CA54D38B1012815D04FF47A7697
:10380000022822D003287DD0206820F020002060EC
:10381000206820F010002060206820F00800206060
:10382000286820F400400EE0206840F0200020606E
:10383000206840F010002060206840F00800206000
:10384000286840F40040286070BD206840F02000E7
:103850002060206820F010002060206820F0080020
:103860002060286820F4004028603046FDF780FC86
:10387000206840F020002060206840F010002060A8
:10388000206820F008002060286820F400402860AC
:103890003046FDF76DFC206820F020002060206895
:1038A00040F010002060206820F0080020602868A8
:1038B00020F4004028603046FDF75AFC206820F0D4
:1038C00020002060206840F010002060206840F058
:1038D00008002060286820F4004028603046FDF78A
:1038E00047FC206820F020002060206820F01000B5
:1038F0002060206840F008002060286820F4004024
:10390000286000E025E03046FDF732FC206820F01A
:1039100020002060206820F010002060206840F027
:1039200008002060286840F4004028603046FDF719
:103930001FFC206820F020002060206820F010008C
:103940002060206820F008002060286840F40040D3
:1039500080E0206820F020002060206820F0100027
:103960002060206820F008002060286840F40040B3
:1039700028603046FDF7FCFB206820F02000206026
:10398000206820F010002060206840F008002060CF
:10399000286840F4004028603046FDF7E9FB2068C5
:1039A00020F020002060206820F0100020602068B7
:1039B00040F008002060286820F40040286030466D
:1039C000FDF7D6FB206820F020002060206840F042
:1039D00010002060206840F008002060286820F473
:1039E000004028603046FDF7C3FB206820F020002F
:1039F0002060206840F010002060206820F008005F
:103A00002060286820F4004028603046FDF7B0FBB5
:103A1000206840F020002060206840F01000206006
:103A2000206820F008002060286820F4004028600A
:103A30003046FDF79DFB206840F0200020602068A4
:103A400020F010002060206820F008002060286826
:103A500020F4004028603046FDF78AFB206840F0E3
:103A600020002060206820F010002060206820F0F6
:103A700008002060286840F4004028603046BDE817
:103A80007040FDF775BB00000C0C01400C080140B4
:103A900010B500290AD00878002807D005487844D6
:103AA000FDF70EFB002801D0002010BD024878442D
:103AB00010BD0000620000005A000000000000007D
:103AC00000000000010203040607080900000000CE
:103AD000010203043A7474003A7474003A74740076
:103AE000103C0008000000205000000028010008E1
:103AF000603C000850000020C0080000440100089D
:103B00001001000043000000F8FFFFFF00404040AC
:103B100040404040404041414141414040404040A0
:103B2000404040404040404040404040400502024C
:103B3000020202020202020202020202022020200B
:103B40002020202020202002020202020202909067
:103B50009090909010101010101010101010101065
:103B600010101010101010100202020202028888B9
:103B700088888888080808080808080808080808C5
:103B800008080808080808080202020240000000AD
:103B90000000000000000000000000000000000025
:103BA0000000000000000000000000000000000015
:103BB0000000000000000000000000000000000005
:103BC00000000000000000000000000000000000F5
:103BD00000000000000000000000000000000000E5
:103BE00000000000000000000000000000000000D5
:103BF00000000000000000000000000000000000C5
:103C000000000000000000000000000000000000B4
:103C100000000000000000000000000000000000A4
:103C20000000000000000000000000000000000094
:103C30000000000000000000000000000000000084
:103C40000000000001000000100000000000000063
:103C50000024F4000000000000000000000000004C
:04000005080000ED02
:00000001FF
